:020000040000FA
:0600000002011A021E437A
:03002B000225713A
:03005300021EB6D4
:03006B0002253F2C
:10008300021CF7E5C754F84401F5C77901220000C3
:100093000080FB120086B90003020104E479217891
:1000A30008B800028004F709D8FCE479297802B87B
:1000B30000028004F709D8FCE490028178D2790722
:1000C3008002F0A3D8FCD9FA781A90014A7A01BACF
:1000D30000028007E493A3F608DAF97A527B0990C9
:1000E300014B783879048015E493A3AD82AE838AFB
:1000F300828B83F0A3AA82AB838D828E83D8E9D9C6
:10010300E775821C75839D740312012C75829175AA
:100113008300740012012C75D00075813F7518811E
:10012300751902759F00020096C09FF59FE473D076
:100133009F22D083D082C09FE493C0E0740193C018
:10014300E0740293F59F2201FF0000B40000280031
:100153002800283075A000A000A000A0000008001F
:1001630008E001F000100010001000100010001053
:100173000050005000500010001000D00700000095
:100183000000000F0001000500307507001000019A
:100193000081FF0000FF80069E068606FF02020222
:1001A30008025000A0000000E803021882010000CA
:1001B3000082021482010000A709022A81010000C3
:1001C300B202021482010000A809020682010000A3
:1001D300C802021482010000A9090208820100007A
:1001E300CA02021482010000AA09020A820800005E
:1001F300CB02021482010000AB09020C8201000051
:10020300AC09FF0100FF20021882010000F7810200
:100213001482010000100A020E8200000000000296
:1002230010820300001803620C620C620C620C6201
:100233000C620C620C620C620C620C620C620C624B
:100243000CF00E080FEA0E02020202020202020280
:10025300010D000000100102188201000003820258
:100263001482010000510A023A820100005B070276
:100273001482010000520A02388201000015810233
:100283001482010000530A022A820100000781023E
:100293001482010000540A022882010000B7800280
:1002A3001482010000550A022682010000A5800283
:1002B3001482010000560A02248201000081800298
:1002C3001482010000570A02208201000093800279
:1002D3001482010000580A021E82010000F9800204
:1002E3001482010000590A021C820100005A0A010B
:1002F300E803053F10FFFFFF00013075030201060D
:1003030000000000000000000000000000000000EA
:10031300000000000000000000000000FFFF0600D6
:10032300800CE803140953696D706C65424C4550A9
:1003330065726970686572616C0512500020030272
:100343000A000201050302F0FF53696D706C65201A
:10035300424C45205065726970686572616C161372
:1003630000001C130A4368617261637465726973E8
:10037300746963203100024368617261637465725A
:10038300697374696320320008436861726163743E
:100393006572697374696320330010436861726125
:1003A300637465726973746963203400024368611E
:1003B300726163746572697374696320350002182E
:1003C30082010000FA810214820100006E0B022EEA
:1003D300820300003C090212820100006F0B021429
:1003E30082010000800B0230820100003D090212ED
:1003F30082010000810B021482010000920B023281
:10040300820200003E09021282010000930B0214D3
:1004130082010000A40B0234820000003F09021095
:10042300820300004009021282010000A50B02149E
:1004330082010000B60B0236820400004609021254
:1004430082010000B70B104B6579205072657373FE
:1004530020537461746500021882010000FD81025B
:100463001482010000500C023E820000004B09027E
:1004730010820300004C09021282010000510C1289
:100483000135989003120135AF9003120135DE90C8
:10049300031201351791031201353F910312013500
:1004A3006D91031201358491031201359B9103125F
:1004B3000135B19103120135D89103120135EB9146
:1004C300031201350192031201351492031201350F
:1004D30039920312013511A40212013510A502123B
:1004E300013545A50212013566A50212013576A52F
:1004F3000212013597A502120135A3A60212013596
:1005030070A702120135E3A70212013569A802128E
:100513000135ACA802120135E3A80212013569A91D
:10052300021201353BAA0212013599AA02120135C2
:10053300B1AA021201352BAB021201352EAB021206
:10054300013531AB02120135D8AB02120135F0ABE4
:100553000212013520AC0212013540AC0212013502
:100563002EAD02120135E4AD02120135DAD90212C1
:10057300013502DA0212013530DA0212013567DA87
:1005830002120135CFDA0212013518DB02120135EE
:1005930063DB02120135A1DB02120135DEDB02123D
:1005A30001350CDC02120135B3DC02120135BDDC6E
:1005B30002120135CADC02120135FDDC02120135DB
:1005C300BFDD02120135CBDD02120135E3DD02127C
:1005D3000135EDDD021201354D9A031201355B9AA7
:1005E30003120135739A031201358B9A03120135F5
:1005F30051A501120135EFA50112013567A60112BC
:1006030001357CA701120135B6A7011201355FA898
:100613000112013534A90112013598AA01120135DD
:10062300EFAA0112013576AB011201355DAC01125F
:100633000135AAAC0112013538AD011201355CADAB
:100643000112013531AF0112013572AF01120135CB
:1006530094AF0112013515B001120135FFB001123B
:100663000135C5B101120135B0BE0212013582BF99
:10067300021201352BC0021201356EC00212013580
:10068300FBC00212013587C10212013568C2021292
:10069300013597C20212013593C302120135DBC340
:1006A30002120135DDC40212013521C502120135E2
:1006B30047C502120135B79B03120135ACF3021291
:1006C3000135C2F302120135E8F30212013510F5C8
:1006D300021201351AF50212013573F602120135C1
:1006E30073F70212013522CB0212013557CC0212E5
:1006F30001358ACC02120135D4CC0212013592CED7
:1007030002120135F4950112013557960112013594
:100713009C9701120135AC9701120135CF97011255
:1007230001351A9801120135BF9801120135B599A7
:10073300011201357F9A01120135F79B0112013530
:10074300399C01120135D79C01120135249D0112F8
:1007530001354A9D01120135389F011201353D9F34
:10076300011201351EA10112013572A101120135D9
:10077300D4A101120135FCA101120135A0A201127D
:10078300013562A30112013593A30112013596A32A
:1007930001120135DEA30112013520A40112013536
:1007A30087A401120135628803120135758803128B
:1007B30001358E8803120135D98803120135B489B6
:1007C30003120135438A031201358E8A0312013560
:1007D300982500120135A42500120135DD250012EC
:1007E3000135222600120135D926001201355F2773
:1007F30000120135C42700120135F027001201351C
:100803002928001201353D2A00120135192C001246
:100813000135042E001201353B2F001201359B31A7
:1008230000120135873200120135CD330012013534
:10083300DA3400120135F734001201352F35001276
:100843000135493500120135B135001201354B3AF6
:1008530000120135EC3A001201353D3B001201351F
:10086300643B00120135B23B00120135D03B00124C
:100873000135243C00120135FD3C00120135843E54
:10088300001201350C3F0012013530D5021201353B
:100893003AD50212013505D60212013520D60212CD
:1008A300013546D6021201358AD602120135C2D667
:1008B30002120135EBD60212013564D7021201355B
:1008C30079D7021201358ED702120135C5D702122C
:1008D3000135D9D7021201350AD80212013544D89D
:1008E3000212013570D802120135C6D80212013541
:1008F3001AD90212013563D9021201358DD90212B8
:100903000135B2D902120135C0EF021201358AF066
:10091300021201356DF102120135E3F102120135C4
:1009230025F20212013552F3021201350080021240
:100933000135298002120135428002120135878177
:1009430002120135658202120135848202120135D9
:10095300118302120135548302120135A18402125C
:100963000135408502120135BF87021201355688D1
:10097300021201352A89021201350C8A021201354D
:10098300788B021201350B8C02120135709503121C
:100993000135D995031201352D960312013554966D
:1009A3000312013501E3021201356EE30212013530
:1009B300B9E302120135AEE402120135AAE50212CF
:1009C300013594E6021201354FAE0212013591AEA4
:1009D300021201356BAF0212013544B00212013528
:1009E3003FB1021201351EB2021201358AB2021260
:1009F300013551B302120135BCB30212013523B4E0
:100A0300021201354EB402120135BFB40212013590
:100A130052B502120135BBB502120135D0B502122F
:100A2300013518B60212013531B60212013596B6F8
:100A33000212013599B60212013500830312013502
:100A430028830312013566830312013524840312BC
:100A530001358F8403120135AB8403120135D3842E
:100A63000312013503850312013512850312013583
:100A73008C8503120135B2850312013578C2011248
:100A8300013555C40112013550C60112013523C782
:100A9300011201356EC701120135B9C701120135C3
:100AA300CBC7011201350BC80112013540C8011231
:100AB30001358CC801120135BBC801120135DEC8EE
:100AC300011201352BC901120135B4C901120135D7
:100AD300C1CB01120135ACCD01120135EFCD0112AD
:100AE300013554CF0112013595CF0112013508D0DC
:100AF3000112013554D0011201357FD001120135A5
:100B0300828C02120135AD8C0212013594930212CC
:100B13000135B89502120135739702120135D09849
:100B230002120135733F001201350A4000120135EC
:100B33003740001201357D4000120135BC410012DF
:100B43000135534300120135CD4300120135E8430B
:100B5300001201355D44001201358C450012013548
:100B6300E74600120135E9470012013546490012F4
:100B730001355F4900120135BC49001201359E4A17
:100B830000120135D14A00120135414B00120135E3
:100B9300BB4B001201350A4C00120135D64C001232
:100BA3000135DB4D00120135BA4E00120135454FB8
:100BB30000120135B34F00120135275000120135E1
:100BC3005050001201350F510012013589520012A5
:100BD3000135A65200120135C55200120135565394
:100BE300001201357B5300120135A3530012013566
:100BF3001E5400120135785400120135CC550012F1
:100C030001358956001201355C5700120135A9D010
:100C130001120135F9D00112013505D10112013557
:100C2300E2D10112013512D2011201354AD2011269
:100C33000135C9D20112013501D30112013553D354
:100C43000112013590D301120135B5D501120135D9
:100C5300E1D701120135DCD901120135B7DB0112ED
:100C63000135F2FF011201354382011201358D82F4
:100C7300011201356C8801120135ED89011201352C
:100C83004C900112013547910112013584910112F3
:100C93000135A79101120135E99101120135F29154
:100CA30001120135FC9101120135E892011201355F
:100CB300DC93011201358A570012013502620012DA
:100CC30001350862001201351469001201357DF700
:100CD3000212013513F80212013529F80212013507
:100CE300A3F802120135F9F80212013537F902129D
:100CF300013594F90212013511FA021201351AFA7B
:100D03000212013526FA0212013539FA02120135AF
:100D130075FA021201358BFA02120135EAFA021250
:100D2300013556E70212013563E7021201357DE70B
:100D330002120135BCE702120135FAE7021201354E
:100D43005FE80212013574E8021201357FE80212EE
:100D530001358CE802120135A3E802120135B1E82E
:100D630002120135BCE802120135C8E8021201354E
:100D7300D7E802120135E2E80212013505E9021251
:100D83000135AEE902120135BEE902120135D8E997
:100D930002120135F5E90212013511EA0212013599
:100DA30036EA0212013540EA0212013554EA021210
:100DB300013573EA02120135D4EA02120135DAEA87
:100DC30002120135E0EA02120135E6EA02120135A8
:100DD300F2EA0212013525EB021201357DDE011222
:100DE3000135FFDE01120135A8DF01120135F0E004
:100DF30001120135FEE201120135E4E3011201356E
:100E030019E4011201353BE401120135E4E4011256
:100E13000135B4E601120135DDE60112013555E76E
:100E23000112013587E70112013594E701120135FB
:100E3300DFE70112013503E80112013554EA01121B
:100E430001355EEB01120135BAEB01120135FAB33C
:100E5300011201350BB501120135EFB50112013550
:100E6300F9B5011201351BB60112013527B601127E
:100E73000135CBB701120135F8B7011201350EB9AF
:100E83000112013563B901120135B2BA01120135FC
:100E930087BB01120135E3BB011201354EBC0112C0
:100EA300013583BC01120135C6BC0112013590BF67
:100EB30001120135A8BF0112013539C001120135F4
:100EC30047C00112013594C001120135A2C00112BD
:100ED30001350EC10112013589C101120135E0C18D
:100EE30001120135F39802120135159902120135E9
:100EF300269B02120135E59D021201350F9F021256
:100F03000135CD9F02120135B9A002120135DF8EE2
:100F130003120135048F031201357A8F0312013551
:100F2300A9F801120135B2F801120135BBF801121B
:100F3300013593F90112013544FB0112013574FBAC
:100F4300011201359FFB01120135CFFB011201355F
:100F5300FAFB011201352EFC011201355AFC011274
:100F630001359DFC01120135C8FC011201350FFD4D
:100F73000112013564FD01120135A6FD011201358F
:100F830000FE011201352BFE011201357AFE01121A
:100F93000135AAFE01120135D5FE0112013503FF09
:100FA3000112013526FF01120135409C0312013560
:100FB3006C9C03120135999C03120135A39C031207
:100FC3000135B39C031201350080031201352580DE
:100FD30003120135508003120135B37F001201352E
:100FE300CF6D00120135A96F00120135597100123E
:100FF3000135417200120135BC72001201353A739A
:10100300001201356B7300120135DE7600120135D3
:101013004C77001201353D780012013577780012C4
:101023000135B77800120135CC79001201350E7AFB
:1010330000120135577A00120135C47A00120135C6
:10104300E67A00120135007B00120135F77B0012AE
:101053000135077C00120135A17D00120135B87DF1
:1010630000120135EA7D00120135767F0012013549
:10107300D09D03120135749D03120135B39D0312F4
:101083000135BD9D031201356E99031201357E9919
:1010930003120135939903120135479A031201355F
:1010A3008596031201350997031201356F970312D1
:1010B3000135ACFE02120135CEFE021201352FFFBF
:1010C3000212013542FF0212013593FF021201356C
:1010D300D2FF02120135D5FF0212013548D00212A8
:1010E30001355CD002120135D5D002120135ADD1E4
:1010F3000212013567D402120135CCD40212013534
:101103001FD502120135F87F00120135B88A031288
:101113000135398C031201359A8C03120135E08CA9
:1011230003120135819803120135A4980312013586
:10113300CD9803120135E398031201352599031263
:101143000135BCC502120135C6C50212013506C6FA
:10115300021201354FC60212013587C6021201354C
:10116300E1C602120135FEC60212013507C702129B
:1011730001354EC70212013577C70212013581C707
:1011830002120135EDC7021201357FC80212013583
:10119300E3C80212013516C90212013595C90212BC
:1011A3000135D0C90212013503CA0212013515CA2D
:1011B3000212013534CA021201353DCA0212013549
:1011C300F6CA02120135F59303120135489403124E
:1011D3000135B49403120135209503120135FA85C4
:1011E30003120135228603120135F78603120135F6
:1011F300F58703120135889703120135E38C031237
:101203000135198D031201354C8D03120135A58E5D
:1012130003120135249B031201353A9B0312013556
:10122300449B031201358C9B03120135BD9C0312B1
:101233000135BDB60212013586B702120135C1B7B9
:1012430002120135F2B70212013552B8021201350A
:101253009CB802120135EAB80212013575B90212BF
:1012630001356EBA0212013512BC0212013592BC6D
:1012730002120135FDBC0212013510BD0212013507
:10128300F7BD0212013541BE0212013582DE0212A0
:10129300013598DE0212013539DF0212013578DF9C
:1012A3000212013595DF02120135C6DF0212013544
:1012B30013E00212013546E00212013581E0021209
:1012C30001358CE202120135F4E20212013507EC1A
:1012D300011201352EEF01120135A8F0011201357B
:1012E300FFF0011201351CF1011201359AF10112CF
:1012F300013517F301120135EAF3011201352FF716
:101303000112013513F801120135A2EB0212013566
:10131300E6ED02120135F7EE0212013597EF0212E4
:1013230001351AFB021201355FFB021201357CFB0A
:10133300021201352DFC0212013580FC0212013527
:1013430069FD0212013577FE021201354B92031239
:101353000135909203120135E19203120135609336
:1013630003120135C09303120135C6FF0112013583
:10137300DEFF02E066701008A3E066700A08A3E0CF
:1013830066700408A3E06622C3E7960809E7960897
:1013930009E7960809E79622C3E09608A3E09608B2
:1013A300A3E09608A3E09622C008C3E096F50808D8
:1013B300A3E096420808A3E096420808A3E09645F6
:1013C300087001D3D00822080808EAC0E0EBC0E0A7
:1013D30086F0E7A4FA180986F0E7A42AFA18098622
:1013E300F0E7A42AFA180986F0E7A42AFA1986F086
:1013F300E7A4FBE5F02AFA190886F0E7A42BFBE53E
:10140300F03AFA190886F0E7A42BFBE5F03AFA184C
:10141300180986F0E7A4C5F02BFBE43AFA1908E7AC
:10142300C5F0C6A426F6E5F03BFBE43AFA1886F0CD
:10143300E7A4F6E5F00826F6E43B08F6E43A08F6F6
:10144300D0E0FBD0E0FA22E4CFC0E0E4CEC0E0E499
:10145300CDC0E0E4CCC0E075F020E626F608E63324
:10146300F608E633F608E633F6181818EC33FCED05
:1014730033FDEE33FEEF33FFC3EC9709ED9709EE2F
:101483009709EF97191919400FFFEC97FC09ED978E
:10149300FD09EE97FE191906D5F0BFECF709EDF734
:1014A30009EEF709EFF7191919D0E0FCD0E0FDD0E8
:1014B300E0FED0E0FF226016080808C6C313C61872
:1014C300C613C618C613C618C613C6D5E0EA2270DB
:1014D30009080808226016181818C6C333C608C6B8
:1014E30033C608C633C608C633C6D5E0EA22E627A4
:1014F300F60809E637F60809E637F60809E637F687
:1015030022E026F608A3E036F608A3E036F608A3A1
:10151300E036F622E026F008A3E036F008A3E03632
:10152300F008A3E036F022C3E697F60809E697F63B
:101533000809E697F60809E697F622C3E096F0084D
:10154300A3E096F008A3E096F008A3E096F022E06B
:1015530056F608A3E056F608A3E056F608A3E056AD
:10156300F622E056F008A3E056F008A3E056F00890
:10157300A3E056F022E0F608A3E0F608A3E0F6089D
:10158300A3E0F622E6F008A3E6F008A3E6F008A33A
:10159300E6F022E0FAA3E0FBA3E0FCA3E0FD22EAED
:1015A300F0A3EBF0A3ECF0A3EDF022E0F8A3E0F955
:1015B300A3E0FAA3E0FB22E8F0A3E9F0A3EAF0A397
:1015C300EBF022CAC0E0E6F0A308DAFAD0E0FA2290
:1015D300CAC0E0E0A3C582CCC582C583CDC583F074
:1015E300A3C582CCC582C583CDC583DAE6D0E0CA64
:1015F30022C3E498F8E499F91216358026C3E49AD5
:10160300FAE49BFBE920E7E9121635E498F8E4993C
:10161300F922C3E498F8E499F9121635E498F8E44A
:1016230099F9C3E49AFAE49BFB22EB20E7CFE92084
:10163300E7E0B90010BB0008E88AF084F8AAF022BA
:10164300E4FBC8FA22EB70227B10C833C8C933C944
:10165300335007C39AC3DBF280069A50012ADBEAB0
:10166300C833F4C8C933F4C9FA2275F008E4C8339F
:10167300C8C933C933C99AC99B5004C92AC93BD5C0
:10168300F0ECFBC833F4C8E4C9FA22600D08C6A223
:10169300E713C618C613C6D5E0F322600C08C6C309
:1016A30013C618C613C6D5E0F422700422600D18C1
:1016B300C6C333C608C633C6D5E0F41822251810AE
:1016C300AF08F518400C15198008F51840021519D4
:1016D300D2AF2200C0D0251810AF08F518500C0562
:1016E300198008F51850020519D2AFD0D022251859
:1016F300F58210AF08F518400C15198008F518404D
:10170300021519D2AF851983222518F582E43519FC
:10171300F583222518F8E43519F9222518FAE4355A
:1017230019FB222518FCE43519FD22E4732518C59D
:1017330082C0E0E51934FFC583C0E0E518C3958294
:1017430024F810AF088583198582188008858319CA
:10175300858218D2AFCEF0A3E520F0A37808E6087F
:10176300F0A3DEFAEFF0A3E58124FAF8E608F0A38C
:10177300E608F0A3E608F0A30808E608F0A3E608E5
:10178300F0A315811581D0E0FED0E0F81581158115
:101793001581E8C0E0EEC0E0222518C582C0E0E56F
:1017A3001934FFC583C0E0E518C3958224F910AF4F
:1017B300088583198582188008858319858218D244
:1017C300AFCEF0A3E520F0A37808E608F0A3DEFA95
:1017D300EFF0A3E58124FBF8E608F0A3E608F0A305
:1017E3000808E608F0A3E608F0A315811581D0E008
:1017F300FED0E0F815811581E8C0E0EEC0E0228557
:101803001983851882E0A3FEE0A3F5207808E0A3FE
:10181300F608DFFAE0A3FFE0A3C0E0E0A3C0E0E046
:10182300A3C0E0E0A3C0E0E0A3C0E010AF0885825E
:10183300188583198008858218858319D2AFD083D0
:10184300D082020132851983851882E0A3FEE0A3CA
:10185300F5207808E0A3F608DFFAE0A3FFE0A3C0D1
:10186300E0E0A3C0E0E0A3C0E0E0A3C0E010AF0865
:101873008582188583198008858218858319D2AFDC
:10188300D083D08222C0D02518C582C0E0E51934A8
:10189300FFC583C0E0E518C3958224F310AF088524
:1018A30083198582188008858319858218D2AFC869
:1018B300F0A3E9F0A3EAF0A3EBF0A37908E709F0BA
:1018C300A3D8FAECF0A3EDF0A3EEF0A3EFF0A3D0CE
:1018D300E0F0A3D0E0F0A3D0E0F0A3E520F0A3E58F
:1018E300F0F0A322851983851882E0C0E0A3E0F914
:1018F300A3E0FAA3E0FBA37808E0F608A3DFFAE08D
:10190300FCA3E0FDA3E0FEA3E0FFA3E0C0E0A3E0AF
:10191300C0E0A3E0F5D0A3E0F520A3E0A3F5F01029
:10192300AF088583198582188008858319858218F5
:10193300D2AFD082D083D0E0F8D0E03274048006F6
:10194300740280027401C0E0F4041216F1D0E012B4
:1019530015C6227404800474028000CCC0E0EDC07C
:10196300E0E518C39CCCAD1950011D10AF068C18CF
:101973008D1980068C188D19D2AF1215D3D0E0FDC6
:10198300D0E0FC22D083D082E9C0E0E493A3C386F5
:10199300F0C5F095F0F908E493A386F0C5F095F04F
:1019A300700BE493A3C3994005E9048002A3E47593
:1019B300F002A42582F582E5F03583F583D0E0F9C2
:1019C300E493A3C0E0E493C0E022D083D082ECC0D0
:1019D300E0EDC0E0E493A3FCE493A3FDED4C600DC4
:1019E300121A19EC24FFFCED34FFFD80EFE493A3FE
:1019F300FCE493A3FDED4C600D121A58EC24FFFC9C
:101A0300ED34FFFD80EFD0E0FDD0E0FCE493A3C014
:101A1300E0E493C0E022C0E0C3E49396087401932A
:101A23009618400FE4936670080874019366187063
:101A3300007019A3A3C3E49396087401939618A3A3
:101A4300A3400DD0E0D0E0D0E0021A09A3A3A3A3E2
:101A5300A3A3D0E022C0E0C0F088F0E4936670084E
:101A63000874019366187000A8F0A3A3700BD0F05C
:101A7300D0E0D0E0D0E0021A09A3A3D0F0D0E02256
:101A840074F512179CEAFEEBFFEE2434F8EF3400F1
:101A9400F988088909EE2435F582EF3400F583E0EE
:101AA400F8EE2437F582EF3400F583E0F50AEC858F
:101AB4000AF0A4FCAAF0850AF0EDA42AFDE82CF8AB
:101AC400E43DF97A257B00121635EA8508828509FA
:101AD40083F05407F87401B800028004C333D8FCBF
:101AE400C0E0E0131313541FF8EE28F8EF3400F9A4
:101AF400E8245DF582E93400F583D0E0F8E058602D
:101B040008EE2434F582EF801EEE2436F582EF349D
:101B140000F583E0F5F0EA84A8F0EE28F8EF34004D
:101B2400F9E82438F582E93400F583E0F97F04020A
:101B3400184874F512179CEAFEEBFFEE2434F58284
:101B4400EF3400F583E0C0E0EE2435F582EF340095
:101B5400F583D0E0F08E828F83A3A3A3A3A3A3A3D2
:101B6400C082C0838E828F83A3A3A3A3A3E0F8A320
:101B7400E0F9D083D082E0C398F508A3E099F50991
:101B8400EE2480F582EF3400F583E064017069EEA1
:101B94002481F582EF3400F583E0F8A3E0F98E8226
:101BA4008F83A3A3A3A3A3A3A3E0FCA3E0FD8E823E
:101BB4008F83A3A3A3A3A3E0FAA3E0FBC3EA9CEB54
:101BC4009D5027C3EC98ED99402EC3EA98EB9950A9
:101BD400277CFD7D04EEFAEFFB120BC0EE2480F5AA
:101BE40082EF3400F583E4F0800EC3EA98EB994069
:101BF400E0C3EC98ED9950D9EE2434F8EF3400F9B1
:101C0400E8FCE9FDEE2435F582EF3400F583E0F8D5
:101C1400EE2437F582EF3400F583E0F50AE5088514
:101C24000AF0A4F508AAF0850AF0E509A42AF50942
:101C3400E82508F8E43509F97A257B00121635EA17
:101C44008C828D83F05407F87401B800028004C3B9
:101C540033D8FCC0E0E0131313541FF8EE28F8EF58
:101C64003400F9E8245DF582E93400F583D0E0F826
:101C7400E0586008EE2434F582EF801EEE2436F539
:101C840082EF3400F583E0F5F0EA84A8F0EE28F85A
:101C9400EF3400F9E82438F582E93400F583E0F9FB
:101CA400122531021B31C082C083851882851983B5
:101CB400E0F8A3E0F9C3EA9CEB9D5012C3EC98ED65
:101CC400994019C3EA98EB99501279018010C3EA3C
:101CD40098EB9940F5C3EC98ED9950EE7900D083D8
:101CE400D08222EAC39CFAEB9DFB220085218785E2
:101CF40022C622C0E0C0D0E8C0E0E9C0E0EAC0E00B
:101D0400EBC0E0ECC0E0EDC0E0C008C009C00AC010
:101D14000BC082C083C0F0759B00906182E0A2E694
:101D24004003021DD5E591A2E64003021DD575913D
:101D3400BF9003C2E064057008120CF8120D048011
:101D440003120CFE752100120D5EE99003C3F079B5
:101D540000120D52120B367A017B009003C1E0F998
:101D640012119C907803E064426003021E1E9005E9
:101D74005FE014F06003021E1EC2AF121D820078E1
:101D84002AD0E0F618D0E0F6E59F5407F9700590E4
:101D940081AB800390815B7808121578E9C4C0E0B8
:101DA4007829E65508F50808E65509F509740B780D
:101DB4000812169ED0E02508F8906270E0A2E74071
:101DC400F8E8C333906272F0906270E0D2E0F08081
:101DD40049E0A2E55024E591A2E5501E7591DF90FB
:101DE40003C2E0640D70139003E4E004F06428700F
:101DF40002E4F07A00E0F9120DD0906181E0A2E3F0
:101E04005009E5E9A2E3500375E9F7A3E0A2E7501E
:101E140009E591A2E7500375917FD0F0D083D08279
:101E2400D00BD00AD009D008D0E0FDD0E0FCD0E03F
:101E3400FBD0E0FAD0E0F9D0E0F8D0D0D0E032C066
:101E4400E0C0D0C082C083906183E0A2E05009E585
:101E5400BFA2E0500375BFFEE0A2E15009E5BFA2B6
:101E6400E1500375BFFDE0A2E25009E5BFA2E250D4
:101E74000375BFFBE0A2E35009E5BFA2E35003757D
:101E8400BFF7E0A2E45009E5BFA2E4500375BFEF39
:101E9400E0A2E55009E5BFA2E5500375BFDFE0A26B
:101EA400E65009E5BFA2E6500375BFBFD083D082D8
:101EB4008088C0E0C0D0E8C0E0E9C0E0EAC0E0EB60
:101EC400C0E0ECC0E0EDC0E0C0F0E5A7A2E6500F32
:101ED400E5A1A2E6500953A7BF75A1BF121F1BE5D8
:101EE400A7A2E5500CE5A1A2E5500653A7DF75A112
:101EF400DFE5A7A2E15009E5A1A2E1500375A1FD28
:101F0400E5A7A2E2500CE5A1A2E2500653A7FB7597
:101F1400A1FBD0F0021E2C74F812179C75210190BD
:101F240003C2E064067015120C8C8A828B83A3A30F
:101F3400A3A3A3A3E0FAA3E0FB120CE6A2AFE4334D
:101F4400FED2AF9003C8E0640170187A207B009041
:101F540003C1E0F91212B07A207B009003C1E0F9CA
:101F64001211A2906182E0D2E6F090055EE0602159
:101F740085C62280169003C7E064017008E5C65444
:101F8400F84405F5C653BEFC121CF07401652160CB
:101F9400E4EEA2E092AF7F01021848008E238F2462
:101FA400858228858327851882851983E0CEA3E05E
:101FB400CF852882852783EBC9EAC8EDCBECCA75A7
:101FC400F010C3E833C8E933C9EA33CAEB33CBC3EF
:101FD400EA9EF526EB9FF525B35004AB25AA26EC23
:101FE40033CCED33CDD5F0DAAE23AF242274EB122B
:101FF400179C74FA1216C08A088B098C148D1590DC
:1020040003C2E024F7C3940550069081B70221531C
:10201400120C8C8A0A8B0BAE0AAF0BEE4F700302C4
:102024002150AC08AD09851882851983AA82AB8337
:10203400120D168E828F83A3A378081215789081CF
:10204400C77808121552851882851983780C1215E1
:10205400789081C7780C1215527808790C12138B7A
:10206400501F7808790C12152A908177780812137A
:10207400AB4047850810850911850A12850B13802A
:1020840041850C10850D11850E12850F137810797A
:102094000812152A90817778101213AB501C751012
:1020A400007511007512007513017810790C121562
:1020B4002A781079081214F180089081B7781012E8
:1020C4001578740978101214D290819B780812152F
:1020D400787810790812144A8E828F83A3A3A3A35D
:1020E400A3A3E0F8A3E0F97AD07B0312163588089D
:1020F4008909E4F50AF50B781079081214F17404CF
:1021040012170CE0F8A3E0F97AD07B03121635E835
:10211400FA8A08E4F5097810790812138B500778C5
:1021240010790812152A9003C2E06408600AE0647A
:10213400066005E06405701C90817B78101213AB77
:10214400501290817F781012150480089081E778EE
:1021540010121578851482851583781012158774EA
:10216400061216D67F0E02184874F712179C120D29
:102174002890055CE064017010906245E4F0A3F0DF
:1021840053F4F343FE0C5390F3120CD4E5C654807D
:102194004449F5C6E59E547F644970F8906185749E
:1021A4000FF090055AE0F47002A3E0604E90055BD6
:1021B400E0600814601B14602E80407508017509E6
:1021C4000090055AE078081216ADE508F4528080B4
:1021D4002A75080175090090055AE078081216ADB1
:1021E400E508F45290801475080175090090055AA9
:1021F400E078081216ADE508F452A079007F0202D7
:10220400184874F712179CE9FEEAFF74016E700C0B
:102214007A807B009003C1E0F912119C902590E430
:1022240093F46008E493F9120B2A800953C680E5FD
:102234009E547F70FA120CDA90055CE0640170031E
:10224400120B4290055AE0F47002A3E0604B900533
:102254005BE0600814601A14602C803D75080175F9
:10226400090090055AE078081216ADE5084280800E
:102274002875080175090090055AE078081216AD12
:10228400E5084290801375080175090090055AE02D
:1022940078081216ADE50842A0120D28120C8C8A9B
:1022A400088B09A808A909E8496015E5E170FCE86C
:1022B4002414F582E93400F583E0F46003E0F5E1E9
:1022C40074016F700A7A019003C1E0F912122002BE
:1022D400220174F112179C8A088B098C0A8D0B74E5
:1022E4000F12170C780C1215789081C77808121504
:1022F400529081C7780C1215527808790C12138BFE
:1023040050157808790C12152A90817778081213E1
:10231400AB401579018013780C790812152A908145
:1023240077780C1213AB40EB79007F0802184874DD
:10233400ED12179C8A088B098C0A8D0B74131217E3
:102344000C780C1215789081C77808121552908178
:10235400C7780C121552780C790812138B40117837
:1023640008790C12152AAA08AB09AC0AAD0B802215
:102374007510007511007512007513017810790C31
:1023840012152A781079081214F1AA10AB11AC12A4
:10239400AD137F0C0218489081C778081215788A0B
:1023A400828B8378081215657F0402184874F5122D
:1023B400179C8C828D8378081215788A828B837897
:1023C4000812153EEA2404F8EB3400F98C828D835C
:1023D400A3A3A3A3E0FCA3E0FD88828983C3E09CBC
:1023E400F0A3E09DF088828983C3E09420A3E09465
:1023F4004E40229081AF78081215788A828B8378B8
:10240400081215178A828B83A3A3A3A3E02420F0C8
:10241400A3E0344EF0808074F512179CE9FE900519
:1024240014E0FAA3E0FBEEC333F8E433F974E928CB
:10243400F582748039F583E02AF508A3E03BF509B9
:1024440078081219439081EB121596121FA074029A
:102454001216D68A088B098C0A8D0B741078081210
:1024640014B9AA08AB097F0402184874F112179C26
:102474008A0C8B0D8C0E8D0F740F12170CE0FAA3BF
:10248400E0FB741112170CE0F508A3E0F5097413CE
:1024940012170CE0FEA3E0FF7808121943EA2401A6
:1024A400F508EB3400F509E4F50AF50B780C790826
:1024B4001213CA90818B7808121578780C79081257
:1024C40013CAAA0CAB0DAC0EAD0F121FA0740212EE
:1024D40016D68B09EA450960047A0180027A00EC79
:1024E4002AFCED3400FDECF8EDF97A717B0212164A
:1024F4003588088909E4F50AF50B8E828F837808FC
:10250400121587ECF8EDF97A717B021216358A08F8
:102514008B09740578081216AD8E828F83A3A3A34A
:10252400A3E508F0A3E509F07F08021848C082C0BB
:1025340083E9906000F0D083D08222C0E074F2126C
:102544001888A2AFE433FED2AFE589A2E04006E5E5
:1025540089A2E150031210CA758900758900C2C5A9
:10256400751A00EEA2E092AF7F010218E7C0E0C046
:10257400D0E8C0E0A8A8D2AFC2C7751A00E8A2E7A5
:0A25840092AFD0E0F8D0D0D0E032E2
:10259000FFFFFFFFFFFFFFFFC082C083E9900A0F2C
:1025A000F002281C74F7121730E99002E0F07C1852
:1025B0007D037AFF7BFF1208609002E174FFF0A3B5
:1025C000F0A3E4F0A3F079051207E89002E0E0F947
:1025D0001207107A7E7B08120A4002352A74F41220
:1025E00017308A088B09EB548060309002E0E0F9E4
:1025F0001211848A0A8B0BAE0AAF0BEE4F60138E5A
:10260000828F83E064B07003120800EEFAEFFB12D1
:102610001172AA08E5096480FB80047A007B00023D
:1026200027EB74F212173074FC1216C0EAFEEBFFAF
:10263000741212170C123A11EE4F70030226C57471
:102640000212170CEEF0A3EF122A26ECF0A3ED1203
:102650002A26AA82AB8312070AE9F50A706AE508FE
:10266000450960648E828F831239F7EE4F60567A87
:10267000067B001212088A0C8B0DA80CA90DE849E4
:102680007005750A13804188828983E41226D2EE90
:10269000F0A3EF123A22E508F0A3E509F09002E674
:1026A0001227599002E670051234D4801B1234C2EE
:1026B0008003EAFCEBFD8C828D8312275970F38C2A
:1026C000828D8380E3750A02A90A74041216D60269
:1026D0003C11F0A31239C8A32274F2121730890AF0
:1026E000E975F017A4FEAFF09002E5E4F09002E384
:1026F000122759600A12120E9002E3E4F0A3F0EEE2
:10270000FAEFFB1212088A088B09EA4509602FEEDE
:10271000FCEFFD79001211609002E3E508F0A3E5FB
:1027200009F07B008008122743E4F0A3F00BEBC311
:10273000950A40F2E50A9002E5F0790080027913EB
:10274000023C11EB75F017A4F8A9F09002E3E02821
:10275000FAA3E0398A82F58322123166EA4B2274A9
:10276000F4121730740C12170C1239ECFEE9FF75D5
:102770000800750900800CE5082401F508E5093416
:1027800000F509C3E5089CE5099D503285080A85D6
:10279000090B7403780A1216ADEA250AF8EB350B1B
:1027A000F988828983A3A3A3A3A3A31235A9EE6505
:1027B0000A7003EF650B70BFE8FAE9FB80047A004A
:1027C0007B00802774F41217307900EAA2E0501BD6
:1027D00075083275098178081219437C047D007AE6
:1027E000117B0A1207E274021216D67F0402180245
:1027F000C082C0839002E6122823601C88828983ED
:10280000A3A3E06A7003A3E06B8882898370E8A3C6
:10281000A3A3A312316280047A007B00D083D0820C
:10282000020132123CF7E8492274EE12173074FCB0
:102830001216C0EAFEEBFF851882851983E4F0A327
:10284000F0EE24021234B4EE24051239CFEE240443
:10285000F50EEF122DDBE024FE603924FC604624E7
:10286000FE605224FE605E24FE700302293C24FEBA
:1028700070030229A024FE70030229AF24FE700316
:102880000229BE24FC70030229CD24FE7003022914
:10289000DC022A199002FF7417F0A3E4122A2E1208
:1028A0000488022A19851882851983AC82AD8312A7
:1028B00008060229E9851882851983AC82AD831246
:1028C000080C0229E9850C08850D09740212170C01
:1028D000AC82AD8385088285098312316212072E8E
:1028E0008A0C8B0DAC0CAD0DEC4D603BE4F50CF59A
:1028F0000D780C121943750CFF750D02780C121926
:1029000043750C00750D03780C12194374081217E7
:102910000C12195A123E731216D6E9F50C700B12EE
:1029200031581204A0800F750C0185088285098337
:10293000122A1C1234D4850C080229EC74021217D6
:102940000CAC82AD83850C82850D83122F2D603CEB
:10295000850C82850D83A3A312195A7510FF75117A
:1029600002781012194375100075110378101219AE
:1029700043740812170C12195A123E731216D6E934
:10298000F509700B1231581204A6800F75090185E4
:102990000C82850D83122A1C1234D4850908804CC0
:1029A000851882851983AC82AD83120812803A851E
:1029B0001882851983AC82AD83120818802B851884
:1029C00082851983AC82AD8312081E801C85188213
:1029D000851983AC82AD83120824800D8518828509
:1029E0001983AC82AD8312082AE9F508E50860294D
:1029F0008E828F83A3E06414601F850E82850F830F
:102A0000E09002FF122A26123CF39003001234D405
:102A1000E508A3122A2E1204820233C3123CF78562
:102A2000188285198322F085188285198322F07C0B
:102A3000FF7D02850A82850B831231662274EE12B5
:102A4000173074FC1216C08A0A8B0B8C0E8D0FEA9D
:102A50002405F508EB3400F5097C157D0079007A32
:102A6000FF7B02121160E5082402F50CE50912391A
:102A7000D28518828519838582108583117810127A
:102A80001943850882850983A3A3A3A3122F2412C7
:102A90001943E5082405F510E5093400F51178100F
:102AA000121943850C82850D83123279120728741E
:102AB000061216D68A108B11AE10AF11E50A240249
:102AC000F50AE50B1234B7EE4F7003022BFB8017AB
:102AD000740212170C12316288828983EAF0A3EB28
:102AE000F09002FFE004F09002FFE0C39405400381
:102AF000022BFBE4F510F51178101219437510E85C
:102B000075110278101219437510E97511027810C9
:102B1000121943740612170C12195A7910EEFCEFB1
:102B2000FD123E751216D6E9705E8508828509830E
:102B3000A3A3A3A3A3A3A3E0F89002E8E0687048CE
:102B4000122F241219437CE97D02E5082408FAE5D6
:102B5000093400FB12115A74021216D6E960298E4C
:102B6000828F83A3A3A3A31231629002FFE0F5102A
:102B7000740278101216AD74002510F582740335B6
:102B800011F583EAF0A3EBF0740212170C858210A2
:102B90008583117810121943740212170C12195AF6
:102BA000850C82850D831231881216D68A108B11FE
:102BB000AE10AF119002FFE0F510751100740278AD
:102BC000101216AD74FF2510F874023511F98882C1
:102BD0008983A31227597003022AC7E8240308082F
:102BE00008E93400F9EE4F6003022AD08882898315
:102BF00074FFF0A3F09002FFE004F09002FFE060A9
:102C00000A1231581204947900800B8508828509D4
:102C1000831234CB790A0233C374EA12173074FE7C
:102C20001216C08C128D13EA2405F50CEB123E5DD2
:102C30001239FB750800750900EA2402F510EB341F
:102C400000F51185188285198385820A85830B78A2
:102C50000A121943850C82850D83A3A3A3A3122D09
:102C6000F1121943E50C2405F50AE50D1234B77885
:102C70000A121943850C82850D83122DF51207283F
:102C800074061216D68A0A8B0BEA450B7003022DC6
:102C900096EA2404F50EEB122DDB1239FB8A828BA7
:102CA00083A3A3A3E0F985108285118312316C60A0
:102CB00003022D96E4F514F51578141219437514D2
:102CC000E875150278141219437514E97515027820
:102CD00014121943740612170C12195A7913AC0AFC
:102CE000AD0B851082851183123E7B1216D6E9F555
:102CF000096003022D969002E8E0F8E5087009E00B
:102D00002402900300F08014900300E0FCE8240209
:102D1000FAE43400FBEA6C7001EB707E850882AA4D
:102D200082122F1B9414122F13506B850E82850F65
:102D300083E0C0E074012A122DD2D0E0F0050885AE
:102D40000E82850F83A3E0C0E085080A7401250A7E
:102D5000122DD2D0E0F005089002E8122DF11219E0
:102D6000437CE97D0285080A7401250A122DE512CB
:102D700016D69002E8E02508F50874FF6E7003741B
:102D8000FF6F6012EE24010EEF3400FFE508C394DC
:102D9000145003022C43E50860131231768510822B
:102DA00085118312316212049A79008014E509704A
:102DB0000375090A851282851383EEF0A3EFF0A94B
:102DC0000974021216D67F0E02180285080C7401CF
:102DD000250CF58274033400F583223400F50F8549
:102DE0000E82F58322FA74033400FB121148740238
:102DF00022123A3122A3A3122DFB221234C2FDEE7D
:102E0000FAEFFB2274EE12173074FE1216C08C0E0D
:102E10008D0FEA2405F50CEB1239D2750B009002E8
:102E2000FFE4F0F50AEA2402F508EB3400F5098026
:102E3000449002FFE0FA9002E8E0F8122F1B94178A
:102E4000122F13400D9002FFE0F87416C398900201
:102E5000E8F0122F241219437CE97D0274002AFA4B
:102E60007403122DE81216D69002E8E0F89002FFE3
:102E7000E028F0050AE50C2416F582E50D122DD6A2
:102E8000E0F8E50AC39850749002FFE0C39416502E
:102E90006BE50AC333F8E433F9E50C28FEE50D3998
:102EA000FF851882851983AC82AD838E828F831251
:102EB0002F2D7008750B011234C78050E4F510F502
:102EC0001178101219437510E87511027810121953
:102ED000437510E975110278101219437406121720
:102EE0000C12195A7916850882850983123E7B12C5
:102EF00016D6E9F50B7003022E3180BB7CFF7D02F4
:102F00008508828509831231621204ACA90B740210
:102F10000233C5E99400C365D03322EA28F8E434CB
:102F200000F9E822E0F5107511007810221233BA8A
:102F30008A108B11AC10AD11EC4D2274EA121730CF
:102F400074FC1216C08A0C8B0D8C128D13EA2405AA
:102F5000F50AEB1234B7750800750900E50A24027A
:102F6000F510E50B3400F511740212170C85820E72
:102F700085830F780E121943850A82850B83A3A3DC
:102F8000A3A31239D7121943E50A2405F50EE50B60
:102F90003400F50F780E12194385108285118312C3
:102FA00034BD12315C12072874061216D68A0E8BB5
:102FB0000FAE0EAF0FE50C2402F50EE50D3400F553
:102FC0000F80388882898374FFF00508122DCB7436
:102FD000FFF005089002E8E0F50C750D00780C1282
:102FE00019437CE97D0285080C7401250C122DE53E
:102FF0001216D69002E8E02508F508EE4F60278EFD
:10300000828F83A3A3A3E0F9850E82850F831231FB
:103010006CEE24041239CFE96027850C82850D837C
:1030200012314E1234D4E508700302313412317675
:10303000850E82850F831231621204B2790002314B
:1030400049E4F514F51578141219437514E875154B
:103050000278141219437514E975150278141219BF
:1030600043740812170C12195A7911EEFCEFFD8502
:103070000E82850F83123E7B1216D6E9F509709AEF
:10308000850882AA82EA9002E87009E0240490038D
:1030900000F08025E0F8900300E0F514E82404FC3B
:1030A000E43400FDEC65147001ED7081122F1B9467
:1030B00012122F13400302302D850C82850D83E000
:1030C000C0E074012A122DD2D0E0F00508850C82F0
:1030D000850D83A3E0C0E0122DCBD0E012319185A5
:1030E000820C85830D780C121943740412170C128C
:1030F000195A8510828511831231881216D68A0CCE
:103100008B0DAE0CAF0D85080C7401250CF8740303
:103110003400F9EE4F7003022FC38518828519839E
:10312000E088828983123191A3E0C0E0122DCBD0D8
:10313000E0022FD1E509700375090A850A82850B23
:103140008312314E1234D4A9097404022DC3123CE7
:10315000F7851282851383227CFF7D02850A828592
:103160000B8312316622E0FAA3E0FB2212316612D1
:103170000716E9F50922900300E0F5F0E5088490D0
:1031800002FFF07CFF7D0222122DFB120734740433
:1031900022F005088518828519832274EC121730F5
:1031A00074FE1216C08A088B098C0E8D0FEA240556
:1031B000FEEB3400FF1233A4EE24181239CFEA4597
:1031C0000B700302324712338D502912326C8A1071
:1031D0008B11EA4511606B7912AC0AAD0B85088240
:1031E00085098312316285108285118312172EE9B9
:1031F000F50A7058E4F50AF50B780A1219438E8225
:103200008F83A3A3E0F50A780A121943EE24031270
:1032100034B4780A1219438E828F831232791208DD
:103220004E74061216D6E9F50A7021850C82850DBA
:1032300083E0701F8508828509831231621204B809
:103240008011750A0E8009750A018004E50A600381
:103250001234C7850C82850D83E0600479008002FA
:10326000A90A74021216D67F0C02180285188285EC
:10327000198312316612083C221234C2FD8508827D
:103280008509831231662274EE12173074FE12160D
:10329000C08A088B098C0C8D0DEA2405FEEB3400E6
:1032A000FF750E001233A4EA450B700302336B1254
:1032B000338D502C12326C8A0E8B0FEA450F604A08
:1032C0007912AC0AAD0B85088285098312316285BB
:1032D0000E82850F8312172EE9F50E600302336EFE
:1032E0008508828509831235A9AA0AFB12337F70EB
:1032F000147AFF7BFF12337F606C88828983E50A32
:10330000F0A3E50BF0750A008007750E0E805F05CF
:103310000A9002E5E0FAE50AC39A504AE50A75F018
:1033200017A4FAABF088828983A3A3E02AFAA3E06A
:103330003BFB8A828B831234BDEC4D70D2750A1729
:10334000750B00780A121943EEFCEFFD1211487458
:10335000021216D6EEFCEFFD850882850983123134
:10336000621204BE8014750E098003750E01123CB2
:10337000EF850C82850D831234D4A90E022F0E1214
:1033800008308A108B11A810A911E84922E50824F9
:1033900002F508E5093400F5098A828B83A3A3A30B
:1033A000E0A2E522851882851983AC82AD838E82E6
:1033B0008F831233BA8A0A8B0B22E0FAA3E0FB1246
:1033C000072E2274041216D67F0A02180274EC1219
:1033D00017308C108D11EA2405F50CEB1239D275DB
:1033E0000F00EA2402F50AEB1234B7850A82F5834E
:1033F000123162123F0170030234A9750E00807110
:10340000850C82850D83E06401704F8E828F83A3CB
:10341000A312195A8E828F83A3A3A3A3E0F512757A
:1034200013007812121943EE2405F512EF3400F55B
:1034300013781212194312315C12084E74061216D8
:10344000D6E9F50F6014850C82850D83E4F0123CFB
:10345000EF8510828511831234D47C177D007900AA
:10346000EEFAEFFB1211608E828F83E4F0A3F00579
:103470000E9002E5E0F8E50EC398501EE50E75F0DB
:1034800017A4F8A9F0850882850983A3A3123E67D3
:103490001234BDEC4D600302340085088285098337
:1034A00074FFF0A3F0E50F700612315C1204C4A99A
:1034B0000F023267F50AEF3400F50B22A31234C273
:1034C000FD22E0FCA3E0228E828F83123CF7850E62
:1034D00082850F83E8F0A3E9F022C082C0839002C6
:1034E000E1E06A7003A3E06B70067AE17B0280047E
:1034F0007A007B0002281C74F71217307F00EF75EA
:10350000F003A4F8A9F0EC28F8ED39F98882898352
:10351000E06A7003A3E06B7006E8FAE9FB800B0F2A
:10352000EFC3940240D87A007B007F010218027436
:10353000F6121730123AE070067A007B008007A37B
:10354000A3A3A3123162023BA174F2121730E9FE69
:10355000740E12170C1235A9741012170C123A11AE
:103560008C828D83E06402703BA3123CF3888289D5
:1035700083E0F50CA3E0F9A80C74026870037429C9
:10358000697021750C02750D00780C1219437808CA
:10359000121943780A121943EEF9120872740612CE
:1035A00016D680027901023C11E0F50AA3E0F50B82
:1035B0002274E812173074FB1216C0E98518828550
:1035C0001983F08A168B178C0E8D0F741F12170C2F
:1035D000123A11742112170C1235A9742312170C08
:1035E0001239FB7510008C828D83A3A3A3E0A2E4A3
:1035F000502A741D12170C1232728A828B83E58254
:10360000458370030236BD790AAC0EAD0FAA16AB26
:103610001712172EE9F51060030236C0850E828559
:103620000F83E064026003023976A3123CF385083D
:1036300082850983A3858212858313E50E2406F50E
:103640000CE50F1239D288828983E0FAA3E0F9EA07
:103650002400F514E439F51578141219CD01000091
:103660002801288536070002285C370328CC36005D
:103670002986380129AE38022955380329863804AD
:103680002917397639EE4F703E850C82850D8312ED
:1036900039ECFAE9FB8A828B83E0850A82850B8309
:1036A000123A281219438A828B83A31234C2FDAACC
:1036B00008AB0912114874021216D6800375100E59
:1036C000A9107405023E5575100B80F4EE4F70F78B
:1036D000850A82850B837401F0123A018508828580
:1036E0000983F07C007D00850E82850F83A3A3A350
:1036F000A3E02401FAA3E03400FB12072EEA4B609A
:10370000418A828B83E02402F8850A82850B83E05C
:1037100028F0EA2404F8EB3400F988828983E085F4
:103720001282851383123A3A123A281219438A8276
:103730008B831234BCE5082403FAE5093400FB024C
:1037400036B3850A82850B83E02404F07C047D0077
:103750007900AA12AB131211600236C0EE4F60035B
:103760000236C7123A01FEA3E0FF850A82850B8369
:103770007404F0EE850882850983F0EF8512828556
:103780001383F0740312170CAC82AD83EEFAEFFBD7
:10379000123ACE70030238328A828B83A3A3123985
:1037A000F7740112170C85820E85830F780E12199B
:1037B00043740512170C12195A7CFF7DFF1207344F
:1037C00074041216D68B0FEA450F7033850C828570
:1037D0000D831239D7121943850C82850D83A312EC
:1037E000195A7C027D007A167B82120560740412DD
:1037F00016D6E9700A740112170C74FFF0A3F08E4C
:10380000828F83E064027034750C02750D00780CB1
:103810001219438E828F831234BCE5082404FAE522
:1038200009122DE81216D6850A82850B83E0240240
:103830008009740112170CEEF0A3EFF07401121757
:103840000C1239E8F0740112170CA31239E0A3A38B
:10385000A3F00236C0EE4F60030236C7850C8285A6
:103860000D831234BDAA16AB17120866850A82852D
:103870000B837402F0EA850882850983F085128241
:10388000851383EB80CBEE4F60030236C7123A01FB
:10389000F8A3E0F9850A82850B837402F0E88508B5
:1038A00082850983F0E985128285138380A3850CC4
:1038B00082850D83123162121142EAFC8C82A88249
:1038C000C39EE49F404BE86E7001EF70047C008063
:1038D0001F851882851983E0FAEE2AFAEF3400FB7F
:1038E000C3EA98EB94005003E08004EECCC39CFC48
:1038F000EC850A82850B83F08C0A750B00780A121E
:103900001943850C82850D83E02EFCA3E03F02362F
:10391000AE7510070236C0EE4F60030236C7850C45
:1039200082850D83123CF3850A82850B837407F030
:10393000888289831239E01239C8E08512828513A2
:1039400083F0E82402FAE93400FB8A828B8312397F
:10395000E0123A191239E8A3123A221239F1F0E8CA
:103960002405F8E93400F9888289831239F1A31219
:103970003A3AA302384E741D12170C123AD970034A
:103980000236BD123CF3880C890DE8450D70030228
:1039900036BD8E108F117810121943780A12194310
:1039A0007808121943740612170CE0F9AC0EAD0F2B
:1039B000AA16AB17850C82850D8312172E7406127A
:1039C00016D6E9F5100236C0F088828983A322F565
:1039D0000CEF3400F50D22E0F50E750F00780E2285
:1039E000E085088285098322123A4122123CF7E8D9
:1039F00022123A41A3A322A3A3A3A3E0FEA3E0FFC4
:103A000022850C82850D83E0F8A3E0F5838882E0AF
:103A100022E0F508A3E0F50922A3A3F08A828B83B4
:103A2000A3221226D4A3A322F08A828B83123A31D6
:103A300022E0F50A750B00780A221239C8123A41C1
:103A400022E0850882850983A3A32274EE12173031
:103A500074FE1216C08A0A8B0BECFAEDFB7414127A
:103A6000170CE0F510A3E0F511741612170CE0FE28
:103A7000741812170CE0F50EA3E0F50F8518828577
:103A80001983AC82AD83123ACE603E8518828519C7
:103A900083123AD9602FA3A3123A11E508450960B1
:103AA00024780E1219437810121943EEF9AC0CADBC
:103AB0000DAA0AAB0B85088285098312172E7404A0
:103AC0001216D68006790E80027901022F0E120797
:103AD0002E8A0C8B0DEA450D22123166123AE02235
:103AE0001207FA8A828B83E58245832274F61217C5
:103AF0003074FE1216C0740C12170C1239EC8518B3
:103B000082851983F0740112170CE9F0E4F508F5C9
:103B100009780812194375080278081219437404C9
:103B200012170C8582088583097808121943120838
:103B30004E74061216D674021216D6806474F712EA
:103B40001730EAFEEBFF89087C187D03120866EA4D
:103B50005402600BA908EEFAEFFB120722800279EB
:103B60000102352A74F612173074FF6A700374FF6D
:103B70006B701C7B00EB75F003A4F8A9F0EC28F83F
:103B8000ED39F9123BA60BEBC39402501480E612F8
:103B900008368A088B09A808A909E8496003123B7E
:103BA000A67F020218028882898374FF1226D2E45B
:103BB000F02274F61217301208368A828B83E5825F
:103BC00045836006A3A3E0FA80027A007B0080D1DF
:103BD00074F21217308A088B09ECFEEDFF740E1296
:103BE000170CE0F50A123C16701CEEFCEFFD7AFF94
:103BF0007BFF123C1670047911801688828983E558
:103C000008F0A3E509F088828983A3A3E50AF07987
:103C1000007F060218021208368A0C8B0DA80CA928
:103C20000DE8492274EE121730EAFEEBFF8C088D86
:103C300009890C741212170C123CF3741412170C2D
:103C40001234BD741612170C123162750D00EC4D52
:103C50006003023CE77402650C6003023CE2888268
:103C600089831234C2F9EC2400F50EE439F50FEA29
:103C7000F4F8EBF4F9EC58F8E50F59F9E849705D00
:103C8000E5082406F8E5093400F9880A890B8882DA
:103C9000F583122DF71208668A108B11E50E651058
:103CA0007004E50F65116042780E121943850A828F
:103CB000850B83122DF712086C74021216D6E9F5E3
:103CC0000D7027780E121943850882850983A3A3F6
:103CD000122DF512088474021216D6800D750D800F
:103CE0008008750D0D8003750D0BA90D0233C88E6C
:103CF000828F83123CF722E0F8A3E0F92274E812E5
:103D0000173074E71216C0851882851983EAF0A36C
:103D1000EBF08C168D17890E743112170CE0F5122A
:103D2000A3E0F513743312170CE0F514A3E0F515B6
:103D3000743512170CE0F50F750800750900E509D8
:103D400075F003A4F8A9F0851882851983123E67DF
:103D5000E0F47003A3E0F47003023E45EE2402F5A4
:103D60000CEF123E5DE07003023E4585160A851792
:103D70000B780A121943AC14AD15AA12AB13120733
:103D8000EE74021216D68A0A8B0BEA450B700302F8
:103D90003E45E4F510F51178101219437406121718
:103DA0000C8582108583117810121943740912173B
:103DB0000C85821085831178101219438512828533
:103DC0001383A3A3A3A312195A7914AC0AAD0B8EC3
:103DD000828F83123E7B1216D6E97069850A82852E
:103DE0000B83A3A3A3A3123CF3740212170C123487
:103DF000D4850C82850D83E0A2E05018A90E7402D0
:103E000012170CAC82AD838E828F8312316212073F
:103E100046E94208850C82850D83E0A2E15026E543
:103E20000FF50A780A121947A90E740312170CAC81
:103E300082AD838E828F8312316212074074011229
:103E400016D6E942080509E509C394025003023D6C
:103E50003EA90874191216D67F100218023400F514
:103E60000D850C82F58322E028FEA3E039FF8E82C7
:103E70008F83227916850A82850B83123166120898
:103E80004874082274F2121730EAFEEBFF890B74B3
:103E900001650B600E7402650B70637901120A5E96
:103EA000E9705BEEFAEFFB123F016047750A008094
:103EB0000B7C177D007900121160050A9002E5E085
:103EC000F8E50AC3985021E50A75F017A4F8A9F09F
:103ED000850882850983A3A3E028FAA3E039FB8A39
:103EE000828B8312282370C985088285098374FF19
:103EF000F0A3F07C187D03EEFAEFFB120860023CA1
:103F0000111208308A088B09EA45092274F2121747
:103F1000308A088B09ECFEEDFF740E12170C123577
:103F2000A9900A0FE0F4603D7A097B0012116CEA57
:103F30004B60328A828B8374B1F0A3E4123A1BA3E4
:103F4000123A19A3E508F0A3E509123F68EEF0A3C1
:103F5000EF123F68A3A3E50AF0A3E50BF0900A0F68
:103F6000E0F9121178023C11F08A828B83A3A3A39B
:103F7000A3A322C082C0839061907404F0A374480C
:103F8000F0A37402F09061807440F09061BC7403FF
:103F9000F09061877419F0906265741BF090619CD9
:103FA000740DF090619A7433F0A37455F09061A091
:103FB000743AF090055CE064017009C2919003C608
:103FC000746780059003C67461F0902596E4939021
:103FD0006186F0902590E493F46027E493540FF801
:103FE000906185E0686012E5C654804449F5C6E5F5
:103FF0009E547F644970F8E8F053C680E59E547F74
:1040000070FA7905120DB20241B5C082C083E9543D
:104010000FF9906185E0696012E5C654804449F566
:10402000C6E59E547F644970F8E9F053C680E59E6A
:10403000547F70FA0241B5C082C083E5A8F853A846
:104040007E906181E4F0A3F0A3F0C2BA539AFEC25D
:1040500089759B00C2C275E90075910075BF007536
:10406000A91175B905906181F0A374C0F0A3E4F0C3
:10407000D2BA439A0174805842A80241B5C082C0A6
:104080008374F81216C09003C4E0F8A3E0F9E8497D
:1040900070030241AB9003C4E0544060237908856B
:1040A0001882851983AA82AB83120C1A851882851F
:1040B0001983AA82AB831208F09003C4E054BFF0C6
:1040C000E054806010790C7A807B05120C1A900302
:1040D000C4E0547FF0E0A2E0503190619A7433F074
:1040E000A37455F09061A0743AF090055CE064010F
:1040F0007009C2919003C6746780059003C674610D
:10410000F01208F69003C4E054FEF0E0540260316F
:1041100090619A743FF0A3745AF09061A0747FF09C
:1041200090055CE064017009D2919003C6747180BF
:10413000059003C6746AF01208F69003C4E054FDBB
:10414000F0E054046013902594E493906186F0129B
:1041500008FC9003C4E054FBF0E054086013902581
:1041600095E493906186F01208FC9003C4E054F744
:10417000F0E054106013902596E493906186F0125D
:1041800008FC9003C4E054EFF0E05420600A1208E9
:10419000FC9003C4E054DFF0A3E05401600D120B67
:1041A000421209029003C5E054FEF074081216D6BC
:1041B0008003F0A3F0D083D08202013274EC121796
:1041C0003074F41216C0851882851983AC82AD83D1
:1041D00075838175829374041215D390259493F49A
:1041E0006003024349907808E0C3940250030243FD
:1041F00029740412170CAC82AD83758381758222F9
:1042000074081215D38518828519838582128583D7
:1042100013740412170CAC82AD83750EFF750FFF7B
:104220007FFF7E00750C48750D78801574086E70E0
:10423000030242BC74096E70030242BC740A6E60D1
:104240007B850C82850D8378081215788C828D838E
:10425000A909E50AC9F88810741878081214B9E594
:10426000104508F8C3E098A3E099850C82850D837A
:10427000780812157840188C828D8374187808128B
:1042800014B9E5104508F8E0C398F8A3E0801C7461
:104290001878081214B9E5104508FAE9FB8C828DEC
:1042A00083E0F8A3E0F9EAC398F8EB99F9C3E8953D
:1042B0000EE9950F5006880E890FEEFF0EE50C24CF
:1042C00004F50CE50D3400F50DEEC3941350030214
:1042D000422C74FF650E700474FF650F60238F0815
:1042E000740278081216AD74482508F58274783582
:1042F00009F5837808121578851282851383E508FD
:10430000F0EC24020C0CED3400FD85128285138341
:10431000A3858212858313740C12170CE5826C70CE
:1043200003E5836D600302421A7508017509007880
:1043300008121943740212170CAC82AD837A657BA4
:10434000091210A674021216D6740C1216D67F0C1F
:10435000021802C082C0839061AE7468F0A3746AD0
:10436000F090624574FBF0A304F053F4FD43FE02A9
:1043700090055C7401F09061A0E0643A90619A70DD
:10438000237433F0A37455F09061A0743AF0740173
:1043900064017009C2919003C6746780289003C6B7
:1043A00074618021743FF0A3745AF09061A0747F0F
:1043B000F0740164017009D2919003C67471800594
:1043C0009003C6746A0241B47F04021802C082C01E
:1043D0008390050EE06401700A900513E060047993
:1043E0000C800279000241B5C082C08375E1F19072
:1043F0000511E0605514600814605914605180592B
:10440000120B54900507E0F97A087B05120D3490E1
:10441000818F121596120D6A9081CF121596120D8A
:1044200040900512E0F9120D4C7901120DA690058D
:1044300005E02416F8A3E03400F988828983746CBF
:10444000F0A3740BF079000241B5120B5A80B4123C
:104450000B6080AF120B6680AA791280EA74F412A6
:10446000173075D90D9004F6E0A2E0E4331313F889
:10447000900507E0C4333354C0484401F5D97805AA
:10448000790588828983A3A3A3E0F5D988828983EB
:10449000A3A882A983E8640B7003E9640570E3783C
:1044A000F6790488828983A3E0F5D988828983A379
:1044B000A882A983E864FC7003E9640470E575E1EF
:1044C000959004F6E0F97AF77B04120D3A900A31E0
:1044D0007400F0A3740BF0A37462F0A3740CF0A347
:1044E0007462F0A3740CF0A37462F0A3740CF0A3D4
:1044F0007406F0A3740BF0A37462F0A3740CF0A321
:10450000741EF0A3740BF0900A3F7462F0A3740C55
:10451000F0A37462F0A3740CF0A37462F0A3740CA3
:10452000F0A37462F0A3740CF0A37462F0A3740C93
:10453000F0A37462F0A3740CF0900505E0F8A3E01A
:10454000F5838882A3A3780812157890818778086C
:104550001215049081C77808121552900505E024C1
:104560000EF8A3E03400F988828983780812158751
:10457000900505E02414F8A3E03400F988828983CB
:104580007413F09003C27402F00243C8C082C08367
:10459000900517E02407F5D9900507E0C43333549C
:1045A000C0F5D97805790588828983A3A3A3E0F5AE
:1045B000D988828983A3A882A983E8640B7003E960
:1045C000640570E3900517E0601F78057905FAE847
:1045D0002413F582E93400F583E0F5D988828983D4
:1045E000A3A882A9831AEA70E6900537E02407F5AC
:1045F000D9900507E0C4333354C04404F5D9780595
:10460000790588828983A3A3A3E0F5D98882898369
:10461000A3A882A983E8640B7003E9640570E390A2
:104620000537E0601F78057905FAE82433F582E95B
:104630003400F583E0F5D988828983A3A882A98311
:104640001AEA70E675E195900A31740CF0A3740BC8
:10465000F0A37462F0A3740CF0A37462F0A3740C62
:10466000F0A37462F0A3740CF0A37406F0A3740BAF
:10467000F0A37462F0A3740CF0A3741EF0A3740B87
:10468000F0900A3F7462F0A3740CF0A37462F0A37C
:10469000740CF0A37462F0A3740CF0A37462F0A322
:1046A000740CF0A37462F0A3740CF0A37462F0A312
:1046B000740CF09081AF121596900505E0240EF869
:1046C000A3E03400F9888289831215A2900505E0E1
:1046D0002414F8A3E03400F9888289837412F090DE
:1046E00003C274010241B4C082C083900517E02464
:1046F00007F5D9900507E0C4333354C04402F5D917
:104700007805790588828983A3A3A3E0F5D98882F7
:104710008983A3A882A983E8640B7003E964057008
:10472000E3900517E0601F78057905FAE82413F592
:1047300082E93400F583E0F5D988828983A3A882D1
:10474000A9831AEA70E675E195900A317418F0A30E
:10475000740BF0A37418F0A3740BF0A37418F0A3F7
:10476000740BF0A37418F0A3740BF0A37418F0A3E7
:10477000740BF0A37418F0A3740BF0A3741EF0A3D1
:10478000740BF0900A3F7462F0A3740CF0A374628F
:10479000F0A3740CF0A37462F0A3740CF0A3746221
:1047A000F0A3740CF0A37462F0A3740CF0A3746211
:1047B000F0A3740CF09081AF121596900505E024DB
:1047C0000EF8A3E03400F9888289831215A29005BF
:1047D00005E02414F8A3E03400F988828983741476
:1047E000F09003C274040241B4C082C083900517E4
:1047F000E02407F5D9900507E0C4333354C04406DC
:10480000F5D97805790588828983A3A3A3E0F5D932
:1048100088828983A3A882A983E8640B7003E96472
:104820000570E3900517E0601F78057905FAE82424
:1048300013F582E93400F583E0F5D988828983A3F2
:10484000A882A9831AEA70E6900537E02407F5D913
:10485000900507E0C4333354C04404F5D978057992
:104860000588828983A3A3A3E0F5D988828983A3DD
:10487000A882A983E8640B7003E9640570E39005DE
:1048800037E0601F78057905FAE82433F582E934CA
:1048900000F583E0F5D988828983A3A882A9831AC9
:1048A000EA70E675E195900A317412F0A3740BF08A
:1048B000A37462F0A3740CF0A37462F0A3740CF000
:1048C000A37462F0A3740CF0A37462F0A3740CF0F0
:1048D000A37462F0A3740CF0A3741EF0A3740BF025
:1048E000900A3F7462F0A3740CF0A37462F0A37496
:1048F0000CF0A37462F0A3740CF0A37462F0A374C0
:104900000CF0A37462F0A3740CF0A37462F0A374AF
:104910000CF09081AF121596900505E0240EF8A3D7
:10492000E03400F9888289831215A2900505E024FD
:1049300014F8A3E03400F9888289837415F0900399
:10494000C274030241B4C082C083900505E0F8A39D
:10495000E0F5838882A3A3A3A3A3A3E40241B274D6
:10496000F71217309003F0E0F875F004A4C8AAF02D
:104970002AF974F228F8740339F9E82405FAE934BD
:1049800000FB8A828B83E0FCA3E0FD88828983A3FD
:10499000A3A3A3A3A3A3A3A3ECF0A3EDF088828910
:1049A00083A3A3A3A3A3A3A3E024FFF8A3E034FF5E
:1049B000F98A828B83E8F0A3E9024C0474F712179A
:1049C00030EAFEEBFF9061D0E06003024A9975D9AE
:1049D0000E75D90375D904EE248CF582EF3400F5F9
:1049E00083E5822408F8E5833400F9E0F5D9A3E8EB
:1049F00065827003E9658370F2EE2484F582EF34FA
:104A000000F583E5822404F8E5833400F9E0F5D964
:104A1000A3E865827003E9658370F275E195790812
:104A2000EE248CFAEF3400FB120C0E7904EE248491
:104A3000FAEF3400FB120C0E7C00EEF8EFF9ECFA02
:104A4000C3E49AFA95E0FBEE2AFAEF3BFBEA248BEB
:104A5000F582EB3400F583E0C0E0E824ABF582E9B1
:104A60003400F583D0E0F00C88828983A3A882A962
:104A700083ECC3940840C7EE2470F582EF3400F550
:104A800083E0F8A3E0F9EE2472F582EF3400F583B9
:104A9000E8F0A3E9F0790180027900024C05C082B8
:104AA000C08375D90275D90375D90575E195EA24D6
:104AB00070F582EB3400F583E0F8A3E0F9EA2472A4
:104AC000F582EB3400F583E8F0A3E9F079010241C7
:104AD000B574F6121730EAFEEBFF9005607406F02D
:104AE00075086075090578081219437C017903126D
:104AF0000C5674021216D675D90675D903758260E4
:104B0000758305E0F5D9A3E58264657004E58364E7
:104B10000570F075E1959003C2E06408701EEE2404
:104B200070F582EF3400F583E0F8A3E0F9EE24722B
:104B3000F582EF3400F583E8F0A3E9F07901024C47
:104B4000D174F6121730EAFEEBFF9061D0E0706688
:104B50007801900560740BF09003C2E0640770194F
:104B600075086075090578081219437C01790312EC
:104B70000C5674021216D67805740128F5D975D929
:104B800003758260758305E8FAE0F5D9A31AEA7027
:104B9000F875E195EE2470F582EF3400F583E0F8C6
:104BA000A3E0F9EE2472F582EF3400F583E8F0A378
:104BB000E9F0790180027900024CD174F7121730C4
:104BC000EAFEEBFF75D90375D90375D90DEE24DE26
:104BD000F582EF3400F583E0F5D975E1957904129B
:104BE0000D70EE2470F582EF3400F583E0F8A3E059
:104BF000F9EE2472F582EF3400F583E8F0A3E9F0D2
:104C000079018001F07F0102180274F6121730EA70
:104C1000FEEBFF9061D0E0F87480C398FAEE248335
:104C2000F582EF3400F583E06004780480027800B8
:104C3000E8240BF8EAC3985003024CCF7D09900595
:104C400060EDF0EE24E3F8EF3400F97A617B057C47
:104C50000888828983E08A828B83F088828983A393
:104C6000A882A9838A828B83A3AA82AB831CEC705F
:104C7000E0EE2483F582EF3400F583E0601D7508D3
:104C80006075090578081219437C097903EEFAEF7B
:104C9000FB120C5674021216D67D0D74012DF5D937
:104CA00075D9037582607583058D08E0F5D9A31564
:104CB00008E50870F675E1957904120D70EE241D73
:104CC000F582EF3400F583E4F0A3F07901800279F6
:104CD000007F0202180274F6121730EAFEEBFF9012
:104CE00061D0E0F87480C398FAEE2483F582EF3443
:104CF00000F583E06004780480027800E82408F876
:104D0000EAC3985003024DD67D06900560740CF0FE
:104D10009003DFE0900561F07AE07B03786279052B
:104D20007C028A828B83E088828983F08A828B83EB
:104D3000A3AA82AB8388828983A3A882A9831CEC5F
:104D400070E07AE27B037C028A828B83E08882892E
:104D500083F08A828B83A3AA82AB8388828983A310
:104D6000A882A9831CEC70E0EE2483F582EF340066
:104D7000F583E0601D750860750905780812194310
:104D80007C067903EEFAEFFB120C5674021216D66B
:104D90007D0A74012DF5D975D90375826075830577
:104DA0008D08E0F5D9A31508E50870F675E1957949
:104DB00004120D70EE2470F582EF3400F583E0F8F4
:104DC000A3E0F9EE2472F582EF3400F583E8F0A356
:104DD000E9F0790180027900024CD174F6121730A3
:104DE000EAFEEBFF9061D0E0F87480C398FAEE24FD
:104DF00083F582EF3400F583E06004780480027864
:104E000000E82404F8EAC3985003024EB5780290F3
:104E10000560E8F0EE24F5F582EF3400F583E090CC
:104E20000561F0EE2483F582EF3400F583E0601B2A
:104E300075086075090578081219437C027903EE3C
:104E4000FA120C5674021216D67806740128F5D997
:104E500075D9037582607583058808E0F5D9A315B7
:104E600008E50870F675E195EE2474F582EF3400DC
:104E7000F583E4F0EE2480F582EF3400F583E4F06E
:104E8000EE241DF582EF3400F583E4F0A3F07904FD
:104E9000120D70EE240DF582EF3400F583E0F8A3D7
:104EA000E0F9EE2472F582EF3400F583E8F0A3E92F
:104EB000F0790180027900024CD174F6121730901B
:104EC00061D0E0F87480C398FCEA2483F582EB3467
:104ED00000F583E06004780480027800E82404F898
:104EE000ECC398405B79029005607407F0EA24F601
:104EF000F582EB3400F583E0900561F0EA2483F558
:104F000082EB3400F583E060187508607509057858
:104F1000081219437C0209120C5674021216D67933
:104F200006740129F5D975D903758260758305E981
:104F3000F8E0F5D9A318E870F875E19579018002D9
:104F40007900024CD174F5121730E9FCA2AFE433BA
:104F5000F50AC2AF7D0080010DEA246FF582EB34C3
:104F600000F583E0F8EDC398501A8D08EA2508F89B
:104F7000EB3400F9E8246BF582E93400F583E06C4A
:104F800070D68024EA246FF8EB3400F9E0FEEA2EB4
:104F9000FAEB3400FBEA246BF582EB3400F583EC8A
:104FA000F088828983E004F0E50AA2E092AF7F03F3
:104FB00002180274F6121730A2AFE433FDC2AFEA52
:104FC000246FF582EB3400F583E014F07C0060364A
:104FD0008C08EA2508F8EB3400F9E8246CF582E93E
:104FE0003400F583E0C0E0E8246BF582E93400F595
:104FF00083D0E0F00CEA246FF582EB3400F583E017
:10500000F8ECC39840CAEA246EF582EB3400F583CD
:1050100074FFF0EA246AF582EB3400F583E4F0EDE6
:10502000A2E092AF024CD1C082C083E5A8F8C2AF23
:10503000EA246BF582EB3400F583E9F0EA246AF5A3
:1050400082EB3400F583E4F0E8A2E792AF0241B5C9
:1050500074F3121730EAFEEBFFECFAEDFB8A828B59
:1050600083A3A3A3A3E0541FF0EE2436F582EF340C
:1050700000F583E4F0F50AEEFCEFFD8A828B83E015
:10508000C0E0EC245DF582ED3400F583D0E0F075EE
:105090000B00E50A33333354F8F50C8A828B83E036
:1050A000F508750900E50B780812168EE508A2E0F0
:1050B000502FEE2436F8EF3400F988828983E0F52A
:1050C00008EE2508F508EF3400F509E5082438F561
:1050D00082E5093400F583E50CF088828983E004D9
:1050E000F0050B050CE50BC3940840AF050A8A8256
:1050F0008B83A3AA82AB838C828D83A3AC82AD8386
:10510000E50AC39405500302507B7F050218027420
:10511000F71217309003EEE0640170077A007B000D
:105120000252867E009003F4E070F17401F0A3E473
:10513000F0A3F090045404F0900457E4F0A3F0902E
:10514000045A04F09003F7E4F0A3F0A3F0A3F09066
:10515000040104F0900427E4F09081E71215969082
:10516000040A1215A290040EE4F0A3F0A3F0900438
:1051700072F0900466F090045B7480F0A3E4F09009
:105180000461F0900459F09004DDF0A3F0A3F0A3C3
:10519000F0A3F0A3F0A3F0A3F09004E6F090047560
:1051A000F09004C5F0A3F09081E71215969004C723
:1051B0001215A29081E71215969004CB1215A290B9
:1051C00004D1E4F09004D3F09004CFF09004E9F01F
:1051D000A3F0A3F0A3F0A3F0A3F0A3F0A3F078EE64
:1051E0007903E8246FF582E93400F58374FFF00E4B
:1051F00088828983A3A882A983EEC3940440E37ABA
:10520000EE7B0378FD790488828983E0C0E0EA249C
:1052100061F582EB3400F583D0E0F088828983A3C6
:10522000A882A9838A828B83A3AA82AB83E86402C3
:105230007003E9640570D07AEE7B0378D579038832
:10524000828983A3E0C0E0EA24E7F582EB3400F52D
:1052500083D0E0F088828983A3A882A9838A828B85
:1052600083A3AA82AB83E864DD7003E9640370CF93
:105270009003EEE004F0640170089003F6E0900300
:10528000F0F07AF27B03024C05C082C0839003F5F4
:10529000E4F09003F4F09003EEF0A3F0A374FFF0B9
:1052A00075E1F10241B5C082C083780079009003B6
:1052B000F5E0600478F2790388828983A3A3A3A32D
:1052C000E0F90241B574F6121730EAFEEBFF8E8268
:1052D0008F83A3A3A3E0600F8E828F83A3A3A3E495
:1052E000F09003EFE014F09003EEE014F0700690FD
:1052F00003F074FFF08E828F83A3A3E4F090050285
:10530000E0700D9003EFE0640170057900120D521A
:10531000EE2465F582EF3400F583E0F8A3E0F9E8C8
:10532000496029EE2465F8EF3400F9880889098876
:1053300082F583E0FCA3E0FD9003F0E0FA7B00122D
:105340000926850882850983E4F0A3F0EEFAEFFBD5
:10535000120C86024CD174F7121730EAFEEBFF8E66
:10536000828F83A3A3A3A3E0FA7B00120968EEFA5D
:10537000EFFB120BD8120C6E024C05C082C0837872
:10538000D5790388828983A3E4F088828983A3A8DE
:1053900082A983E864DD7003E9640370E69003D6B4
:1053A0000246E274F6121730EAFEEBFFEC2403F833
:1053B000ED3400F988088909EC2407F8ED3400F988
:1053C000E8FCE9FD8C828D83E0F8A3E0F985088292
:1053D000850983E0FAA3E0FB121635EE240DF58271
:1053E000EF3400F583E8F0A3E9F08C828D83E0F8D8
:1053F000A3E0F9850882850983E0FAA3E0FB121691
:10540000358B09EA45096013EE240DF582EF34006F
:10541000F583E02401F0A3E03400F0024CD174F6EF
:10542000121730EAFEEBFFEE242EF582EF3400F582
:1054300083E0FCA3E0FD780079FAECFAEDFB1216AC
:1054400035EE2470F582EF3400F583E8F0A3E9F03F
:10545000780079FAECFAEDFB1216358B09EA45096A
:105460006013EE2470F582EF3400F583E02401F040
:10547000A3E03400F0024CD174F0121730EAFEEBD6
:10548000FF741012170C7808121578120D108A0C80
:105490008B0D8C0E8D0F908183780C1215049081EA
:1054A000C7780C121552780C12193F8E828F83E048
:1054B000F8A3E0F5838882A3A31215961222D6746E
:1054C000041216D6E960030255C58E828F83E0244C
:1054D00002F8A3E03400F9E8FAE9FB8A828B8378CA
:1054E000081215179081C778081215788A828B8365
:1054F0007808121565EE240BF582EF3400F583C0B1
:1055000082C0838E828F83A3A3A3A3A3E02401F888
:10551000A3E03400F9D083D082E0687003A3E0698F
:10552000700579010255C78E828F83A3A3A3A3A31D
:10553000A3A3E02401F0A3E03400F0EE2474F5828C
:10554000EF3400F583E064017036EE2475F582EFE8
:105550003400F583E0F8A3E0F98E828F83A3A3A340
:10556000A3A3A3A3E0687003A3E0697013EE2475FE
:10557000F582EF3400F583E02401F0A3E03400F07D
:10558000EE2480F582EF3400F583E064017036EE9E
:105590002481F582EF3400F583E0F8A3E0F98E82F0
:1055A0008F83A3A3A3A3A3A3A3E0687003A3E069CD
:1055B0007013EE2481F582EF3400F583E02401F0CE
:1055C000A3E03400F079007F0802180274F7121784
:1055D000309003F0E0F875F004A4C8AAF02AF9743A
:1055E000F228FE740339FF8028EE2465F8EF3400BA
:1055F000F988828983E0FCA3E0FD88828983E4F056
:10560000A3F08E828F83A3A3A3A3E0FA7B001209E9
:1056100026EE2465F582EF3400F583E0F8A3E0F987
:10562000E849604FEE2464F582EF3400F583E0F53D
:10563000087808121947EE2463F582EF3400F583E9
:10564000E0F9EE2465F582EF3400F583E0FCA3E099
:10565000FDEEFAEFFB120C0274011216D6E9608916
:10566000EE2465F582EF3400F583E0F8A3E0F9E875
:105670004970137C007D008E828F83A3A3A3A3E0D7
:10568000FA7B00120926024C0574F2121730EAFE6A
:10569000EBFF890A740E12170CE0FAEE2462F58211
:1056A000EF3400F583E0640160030257559061D048
:1056B000E0F87480C398F50CEE2483F582EF340093
:1056C000F583E060047804800278008908E928F80E
:1056D000E43400F9E824020808E93400F9E50C98FC
:1056E000E499A2D265D0334068EA7005750B028058
:1056F00003750B01E0603975090078081219437AC7
:10570000607B05120C3874021216D6750860750994
:10571000057808121943AC0AA90BEEFAEFFB120C3C
:105720005674021216D67404250AF50A7C607D05AB
:105730007401250AF5D9850BD9E50A600D8C828D97
:1057400083F8E0F5D9A318E870F875E19579008041
:10575000067907800279FF7F06021802C082C083A3
:10576000E960208C828D83E08A828B83F08C828D2D
:1057700083A3AC82AD838A828B83A3AA82AB831975
:10578000E970E0ECFAEDFB0241B574EA12173090D3
:105790007803E06442705E90055FE014F07056C2DA
:1057A000AF1257A400782AD0E0F618D0E0F6E59FB3
:1057B0005407F970059081AB800390815B780812E3
:1057C0001578E9C4C0E07829E65508F50808E655DB
:1057D00009F509740B780812169ED0E02508F89098
:1057E0006270E0A2E740F8E8C333906272F0906222
:1057F00070E0D2E0F09003F0E0F47003025BADE003
:10580000F875F004A4C8AAF02AF974F228FE74030B
:1058100039FFEE2402F582EF3401F583E0F8A3E0CE
:10582000F9E849601EEE2402F582EF3401F583E0C9
:10583000FAA3E0FBEE2401F582EF3401F583E0F9F1
:1058400012119C8E828F83A3A3A3A3A3A3A3E0F82A
:10585000A3E0F98E828F83A3A3A3A3A3E8F0A3E917
:10586000F0906054E09003C9F0906055E09003CA56
:10587000F0906056E09003CBF0906057E09003CC3E
:10588000F0906058E09003CDF0906059E09003CE26
:10589000F090605AE09003CFF090605BE09003D00E
:1058A000F090605CE0FC9003D1F090605DE0FB90D4
:1058B00003D2F090605EE0FD9003D3F090605FE073
:1058C000FA9003D4F09003CFE08C082508F8E43474
:1058D00000F98D08E82508F8E93400F98B08E82577
:1058E00008F8E93400F98A08E82508FAE93400FBE9
:1058F000EE24F7F582EF3400F583E02AF0A3E03BD5
:10590000F08C08EE24F9F582EF3400F583E02508E9
:10591000F0A3E03400F0EE24FBF582EF3400F583D1
:10592000E02401F0A3E03400F0EE24FFF582EF3430
:1059300000F583E0F8A3E0F9E8496042906000E0F8
:10594000C333FCE433FDE82CF582E93DF583E02A1E
:10595000F0A3E03BF0906000E0FA9003D1E0FCEAB5
:10596000C333FAE433FBE82AF8E93BF9E8244AF5C3
:1059700082E93400F583E02CF0A3E03400F09003DA
:10598000CFE070119003D2E0700BA3E07007A3E0AA
:105990007003025A8D8E828F83A3A3A3A3A3E0F882
:1059A000A3E0F9EE240DF582EF3400F583E028F84A
:1059B000A3E039F9EE240BF582EF3400F583E8F02B
:1059C000A3E9F0EE240FF582EF3400F583E4F0EE66
:1059D000241CF582EF3400F583E06401701EEE2490
:1059E00020F582EF3400F583E0F8A3E0F9EE241D02
:1059F000F582EF3400F583E8F0A3E9F09003CAE004
:105A00006052EE241CF582EF3400F5837401F0EE51
:105A1000246AF582EF3400F583E07038EE2474F5E3
:105A200082EF3400F583E0702BEE2480F582EF34B2
:105A300000F583E0701EEE2420F582EF3400F5833C
:105A4000E0F8A3E0F9EE241DF582EF3400F583E8D9
:105A5000F0A3E9F0906062E07003025B408E828FF9
:105A600083E0F8A3E0F9E82406FCE93400FDE8242B
:105A700002FAE93400FB120D0A8E828F83E02412B1
:105A8000F8A3E03400F988828983025B4A9003D14D
:105A9000E0603AEE240FF582EF3400F583E4F0EE97
:105AA000241CF582EF3400F583E064017040EE249D
:105AB00020F582EF3400F583E0F8A3E0F9EE241D31
:105AC000F582EF3400F583E8F0A3E98020EE24FDB1
:105AD000F582EF3400F583E02401F0A3E03400F018
:105AE000EE241DF582EF3400F583E4F0A3F0EE24FC
:105AF0000BF582EF3400F583E0F8A3E0F98E828F96
:105B000083A3A3A3A3A3E0687003A3E069600302D7
:105B100059FCEE240FF582EF3400F583E060128E1D
:105B2000828F83A3A3A3A3A3E064057002A3E06014
:105B30000B7908EEFAEFFB120BDE8071793E80F3F1
